:020000040800F2
:1000000000500020BD1800084D18000853180008C3
:10001000591800085F180008651800080000000063
:100020000000000000000000000000006B18000845
:100030007718000800000000831800088F180008D7
:100040000519000805190008051900080519000818
:100050000519000805190008051900080519000808
:1000600005190008051900080519000805190008F8
:1000700005190008051900080519000805190008E8
:1000800005190008051900080519000805190008D8
:1000900005190008051900080519000805190008C8
:1000A00005190008051900080519000805190008B8
:1000B0009D18000805190008051900080519000811
:1000C0000519000805190008051900080519000898
:1000D0000519000805190008051900080519000888
:1000E000051900080519000805190008000000009E
:1000F0000000000000000000000000000000000000
:0C01000000000000000000005FF808F1A3
:10010C0010B5054C237833B9044B13B10448AFF345
:10011C0000800123237010BD24000020000000008B
:10012C009431000808B5034B1BB103490348AFF3E6
:10013C00008008BD00000000280000209431000859
:10014C0080B483B000AF00237B603DE023497A6824
:10015C001346DB009B1A9B000B4400221A601F49BC
:10016C007A681346DB009B1A9B000B440433322243
:10017C001A601A497A681346DB009B1A9B000B44E1
:10018C00083301221A6015497A681346DB009B1A62
:10019C009B000B440C3301221A6010497A681346F9
:1001AC00DB009B1A9B000B44103301221A600B4995
:1001BC007A681346DB009B1A9B000B441433012214
:1001CC001A607B6801337B607B68022BBEDD00BF4D
:1001DC0000BF0C37BD4680BC704700BFA800002094
:1001EC0080B483B000AF78600D497A681346DB00A9
:1001FC009B1A9B000B441B68012B0AD108497A6897
:10020C001346DB009B1A9B000B4400221A6001234F
:10021C0000E0002318460C37BD4680BC704700BF79
:10022C00A800002080B483B000AF786006497A68DB
:10023C001346DB009B1A9B000B4401221A6000BF83
:10024C000C37BD4680BC7047A800002080B582B03A
:10025C0000AF00237B6056E1AF497A681346DB00A0
:10026C009B1A9B000B440C331968AB487A681346F5
:10027C00DB009B1A9B00034408331960A6497A687B
:10028C001346DB009B1A9B000B4410331968A248E1
:10029C007A681346DB009B1A9B0003440C331960ED
:1002AC009E4A7B6852F833209C497B68DB000B44E8
:1002BC009B881946104601F015FE034618469649D0
:1002CC007A681346DB009B1A9B000B4410331860B2
:1002DC0091497A681346DB009B1A9B000B44083348
:1002EC0019688D487A681346DB009B1A9B000344FF
:1002FC000C331B68994240F0FC8087497A6813469E
:10030C00DB009B1A9B000B440C33196882487A68FB
:10031C001346DB009B1A9B00034410331B68994265
:10032C0040F0E7807C497A681346DB009B1A9B00FF
:10033C000B441033196878487A681346DB009B1A13
:10034C009B0003441433196073497A681346DB002D
:10035C009B1A9B000B4418331B68032B00F2D080B4
:10036C0001A252F823F000BFE30300089B0300082E
:10037C00850300087B04000867497A681346DB0094
:10038C009B1A9B000B44183301221A60B8E0624997
:10039C007A681346DB009B1A9B000B4414331B68D2
:1003AC00002B40F0A8807868FFF73CFF5A497A6828
:1003BC001346DB009B1A9B000B44043332221A6059
:1003CC0055497A681346DB009B1A9B000B44183383
:1003DC0000221A608FE050497A681346DB009B1AA2
:1003EC009B000B4414331B68012B0AD14A497A68D1
:1003FC001346DB009B1A9B000B44183301221A6036
:10040C007BE045497A681346DB009B1A9B000B4442
:10041C0004331B68591E40487A681346DB009B1A4C
:10042C009B000344043319603B497A681346DB0094
:10043C009B1A9B000B4404331B68002B5DD178681E
:10044C00FFF7F0FE34497A681346DB009B1A9B00D9
:10045C000B44043332221A602F497A681346DB00AE
:10046C009B1A9B000B44183303221A6045E02A495F
:10047C007A681346DB009B1A9B000B4414331B68F1
:10048C00012B0AD124497A681346DB009B1A9B0086
:10049C000B44183301221A6031E01F497A68134665
:1004AC00DB009B1A9B000B4404331B68591E1A4833
:1004BC007A681346DB009B1A9B00034404331960D3
:1004CC0015497A681346DB009B1A9B000B440433D6
:1004DC001B68002B13D17868FFF7A4FE0E497A68CD
:1004EC001346DB009B1A9B000B44043332221A6028
:1004FC0005E000BF04E000BF02E000BF00E000BF69
:10050C007B6801337B607B68022B7FF7A5AE00BF55
:10051C0000BF0837BD4680BDA8000020AC310008E4
:10052C0080B500AF2021054801F00BFD4FF47A7126
:10053C00002001F09DF800BF80BD00BF0008014005
:10054C0080B500AF4FF47A71002001F091F800BF34
:10055C0080BD000080B400AF034B40F6DF725A61DF
:10056C0000BFBD4680BC70470008014080B400AF9E
:10057C00054B40F28A421A61034B40F657325A61DE
:10058C0000BFBD4680BC70470008014080B400AF7E
:10059C00054B40F249421A61034B40F696325A61C0
:1005AC0000BFBD4680BC70470008014080B400AF5E
:1005BC00054B40F614221A61034B40F2CB525A61A0
:1005CC0000BFBD4680BC70470008014080B400AF3E
:1005DC00054B40F612121A61034B40F2CF625A617E
:1005EC0000BFBD4680BC70470008014080B584B098
:1005FC0000AF0346FB710023FB6020E097F9073046
:10060C00002B06DA01224FF40041114801F081FC65
:10061C0005E000224FF400410D4801F07AFCFB7913
:10062C005B00FB7100220221094801F072FC0122DF
:10063C000221074801F06DFCFB680133FB60FB688D
:10064C00072BDBDD00BF00BF1037BD4680BD00BFF0
:10065C00000C014090B583B000AF0446084611462B
:10066C001A462346FB710346BB710B467B7113463E
:10067C003B7100220421124801F04BFC3B79114ADA
:10068C00D35C1846FFF7B2FF7B790E4AD35C184651
:10069C00FFF7ACFFBB790B4AD35C1846FFF7A6FFFC
:1006AC00FB79084AD35C1846FFF7A0FF012204210E
:1006BC00034801F02EFC00BF0C37BD4690BD00BFB7
:1006CC00000C0140C431000880B500AF01F016F9F0
:1006DC0000F02CF800F0E0F800F0B4F800F066F848
:1006EC000D4802F0A5F800F0D5FC012200210B48C2
:1006FC0000F0FCFC05220021094800F0F7FC642204
:10070C000021084800F0F2FC01220021064800F00C
:10071C00EDFC00F037FFFCE7FC000020C5160008DC
:10072C00590200082D050008E90C000880B590B0AE
:10073C0000AF07F1180328220021184602F01CFD17
:10074C003B1D00221A605A609A60DA601A6102231B
:10075C00BB610123BB621023FB6202237B6300237A
:10076C00BB630023FB6307F11803184601F002FC7E
:10077C000346002B01D000F035F90F237B600223D8
:10078C00BB600023FB6000233B6100237B613B1DAE
:10079C000021184601F06EFE0346002B01D000F03C
:1007AC0021F900BF4037BD4680BD000080B586B042
:1007BC0000AF07F1080300221A605A609A60DA60F1
:1007CC003B4600221A605A601D4B4FF080421A6063
:1007DC001B4B41F63F725A60194B00229A60184B22
:1007EC000922DA60164B00221A61154B00229A611D
:1007FC00134801F0CDFF0346002B01D000F0F2F8B6
:10080C004FF48053BB6007F1080319460C4802F003
:10081C0051F90346002B01D000F0E4F800233B60B3
:10082C0000237B603B461946054802F033FB034628
:10083C00002B01D000F0D6F800BF1837BD4680BDA4
:10084C00FC00002080B500AF114B124A1A60104B0F
:10085C004FF4E1325A600E4B00229A600C4B00228E
:10086C00DA600B4B00221A61094B0C225A61084BBF
:10087C0000229A61064B0022DA61054802F07AFBED
:10088C000346002B01D000F0ADF800BF80BD00BFC7
:10089C00440100200044004080B588B000AF07F14F
:1008AC00100300221A605A609A60DA60444B9B690C
:1008BC00434A43F010039361414B9B6903F01003CF
:1008CC00FB60FB683E4B9B693D4A43F02003936100
:1008DC003B4B9B6903F02003BB60BB68384B9B69A7
:1008EC00374A43F004039361354B9B6903F00403CF
:1008FC007B607B68324B9B69314A43F00803936100
:10090C002F4B9B6903F008033B603B6800220E21D0
:10091C002C4801F0FEFA002240F6F3712A4801F04F
:10092C00F8FA002248F20601284801F0F2FA4FF4D6
:10093C0002533B6100237B610023BB6107F1100371
:10094C001946204801F04AF90E233B6101237B61D3
:10095C000023BB610223FB6107F110031946194800
:10096C0001F03CF940F6F3733B6101237B610023FA
:10097C00BB610223FB6107F110031946124801F019
:10098C002DF948F206033B6101237B610023BB6117
:10099C000223FB6107F1100319460C4801F01EF904
:1009AC0040233B6100237B610023BB6107F11003F3
:1009BC001946064801F012F900BF2037BD4680BD2C
:1009CC00001002400010014000080140000C0140E2
:1009DC0080B582B000AF786000F068FB00BF0837CC
:1009EC00BD4680BD80B400AF72B600BFFEE700000C
:1009FC0080B582B000AF78603960052000F01CFE35
:100A0C000346002B1DD0FFF7A5FD104B1B680133CF
:100A1C005A4203F0030302F0030258BF53420B4A3D
:100A2C0013600A4B1B685B003A6813441B88012255
:100A3C001946786801F06DFA4FF4FA71052000F050
:100A4C0017FE00BF0837BD4680BD00BF4400002024
:100A5C0080B582B000AF954B1B68032B71D0032B74
:100A6C0000F39B80012B02D0022B35D095E09049EE
:100A7C009048FFF7BDFF0120FFF7B2FB0346002BA8
:100A8C000BD08D4B1B6801338B4A13608A4B1B6850
:100A9C00632B02DD884B01221A600220FFF7A0FBBA
:100AAC000346002B03D0844B1B68844A1360002040
:100ABC00FFF796FB0346002B77D07C4B02221A6083
:100ACC007F4B1B687C4A13607E4B00221A600A2104
:100ADC00052000F0CDFD68E07B497648FFF788FFE4
:100AEC000120FFF77DFB0346002B0BD0724B1B68DC
:100AFC000133714A1360704B1B68632B02DD6E4B24
:100B0C0001221A600220FFF76BFB0346002B03D077
:100B1C00694B1B686A4A13600020FFF761FB0346B0
:100B2C00002B44D0614B03221A60684B1B68624A4D
:100B3C001360644B00221A600A21052000F098FD16
:100B4C0035E063495B48FFF753FF0120FFF748FB93
:100B5C000346002B0BD0584B1B680133564A1360CD
:100B6C00554B1B68632B02DD534B01221A6002208C
:100B7C00FFF736FB0346002B03D04F4B1B68534A41
:100B8C0013600020FFF72CFB0346002B11D0514BB8
:100B9C0001221A6000F04CF90BE0444B01221A6060
:100BAC00464B1B68444A136004E000BF02E000BFE0
:100BBC0000E000BF404B1B68474A82FB03129210B7
:100BCC00DB17D31A7B713C4B1A68434B83FB021324
:100BDC009910D317C91A0B469B000B445B00D11A12
:100BEC000B463B710023FB710023BB712F4B1B6821
:100BFC00012B18D1314B1B68374A82FB0312921020
:100C0C00DB17D31AFB712D4B1A68334B83FB021382
:100C1C009910D317C91A0B469B000B445B00D11AD1
:100C2C000B46BB7138E0214B1B68022B18D1244BAF
:100C3C001B68294A82FB03129210DB17D31AFB7133
:100C4C001F4B1A68244B83FB02139910D317C91A34
:100C5C000B469B000B445B00D11A0B46BB711BE08F
:100C6C00124B1B68032B17D1184B1B681A4A82FBBB
:100C7C0003129210DB17D31AFB71144B1A68164B24
:100C8C0083FB02139910D317C91A0B469B000B4414
:100C9C005B00D11A0B46BB71BB79FA79397978793B
:100CAC00FFF7D8FC00BF0837BD4680BD1000002000
:100CBC00D031000800080140400000200400002052
:100CCC000800002044000020D83100080C0000204F
:100CDC00E0310008000000206766666680B500AF52
:100CEC00204B1B68032B22D0032B32DC012B02D0B0
:100CFC00022B2BD02DE000F0BFF80020FFF770FA8C
:100D0C000346002B29D0174B03221A60164B0122E5
:100D1C001A60164B1B68164A1360164B00221A6099
:100D2C00FFF718FC0A21052000F0A2FC15E000F0EA
:100D3C0025F80020FFF754FA0346002B0FD0094B7F
:100D4C0002221A600C4B02221A6008E0FFF780FEA8
:100D5C0006E0044B01221A6002E000BF00E000BF75
:100D6C0000BF80BD00000020100000200400002007
:100D7C0040000020440000204800002080B500AF57
:100D8C002A4B1B68023B032B3AD801A252F823F0E2
:100D9C00AD0D0008C50D0008DD0D0008F50D0008AF
:100DAC00FFF704FC0120FFF71BFA0346002B31D0A0
:100DBC001E4B03221A602DE0FFF708FC0120FFF701
:100DCC000FFA0346002B27D0184B04221A6023E09D
:100DDC00FFF7CCFB0120FFF703FA0346002B1DD0D5
:100DEC00124B05221A6019E0FFF7D0FB0120FFF728
:100DFC00F7F90346002B13D00C4B02221A600FE0BC
:100E0C000120FFF7EDF90346002B0BD0074B022214
:100E1C001A6007E000BF06E000BF04E000BF02E07C
:100E2C0000BF00E000BF00BF80BD00BF4800002035
:100E3C0080B500AF0B4B01221A600B4B1B680B4AA1
:100E4C0013600B4B1B680B4A13604FF47A71032031
:100E5C0000F00EFC4FF47A71042000F009FC00BF86
:100E6C0080BD00BF14000020040000204C000020B6
:100E7C000C0000205000002080B582B000AF032091
:100E8C0000F0DAFB0346002B0DD07B4B1B68002BCC
:100E9C0004DD794B1B68013B774A13604FF47A7180
:100EAC00032000F0E5FB042000F0C6FB0346002BFA
:100EBC000DD0724B1B68002B04DD704B1B68013B83
:100ECC006E4A13604FF47A71042000F0D1FB6C4B26
:100EDC001B68013B042B00F2948001A252F823F012
:100EEC00010F0008210F0008550F0008910F000892
:100EFC00C50F0008FFF72EFB614B02221A60614BF5
:100F0C001B684FF47A7202FB03F31946062000F0BB
:100F1C00AFFB76E0FFF74AFB062000F08DFB0346A3
:100F2C00002B67D0564B03221A60574B1B68534A51
:100F3C001360554B1B684FF47A7202FB03F319468E
:100F4C00062000F095FB55E0FFF740FB062000F073
:100F5C0073FB0346002B4FD0494B04221A60494BBC
:100F6C001B68454A1360494B1B68444A1360454B48
:100F7C001B684FF47A7202FB03F31946062000F04B
:100F8C0077FB39E0FFF7F2FA062000F055FB034639
:100F9C00002B33D03A4B05221A603B4B1B68364A68
:100FAC001360394B1B684FF47A7202FB03F319463A
:100FBC00062000F05DFB21E0FFF7E8FA062000F0C8
:100FCC003BFB0346002B1BD02D4B02221A602F4BF0
:100FDC001B68294A13602B4B1B68284A1360294B4A
:100FEC001B684FF47A7202FB03F31946062000F0DB
:100FFC003FFB05E000BF04E000BF02E000BF00E0E3
:10100C0000BF1D4B1B68224A82FB03129210DB1798
:10101C00D31AFB71184B1A681D4B83FB02139910E2
:10102C00D317C91A0B469B000B445B00D11A0B4615
:10103C00BB71124B1B68164A82FB03129210DB1712
:10104C00D31A7B710D4B1A68114B83FB0213991049
:10105C00D317C91A0B469B000B445B00D11A0B46E5
:10106C003B713B797A79B979F879FFF7F3FA00BFDC
:10107C000837BD4680BD00BF4C000020500000204A
:10108C00140000200C0000200800002004000020A8
:10109C006766666680B500AF00F0B4FAFFF750F8EB
:1010AC00FFF7C6FEFFF74CFA00BF80BD80B400AF5F
:1010BC000D4B1B68002B13D00B4B5B68002B0FD117
:1010CC00094B9B68002B04DD074B9B68013B064AD0
:1010DC009360054B9B68002B02DC034B01225A608A
:1010EC0000BFBD4680BC70475800002080B588B05A
:1010FC0000AFF860B9607A600023FB6100233B61AC
:10110C000023BB610023BB6133E1A249BA691346DA
:10111C009B0013449B000B4408331B68FA6913446F
:10112C00FB61FA69BB689A4240F3C1809949BA697C
:10113C0013469B0013449B000B4408331B68FA694D
:10114C00D31ABA68D31A3B61FA69BB68D11A9148B1
:10115C00BA6913469B0013449B000344083319607F
:10116C0003237B614CE07B695A1E8A4913469B0022
:10117C0013449B000B440833196886487A6913465C
:10118C009B0013449B000344083319607B695A1E6F
:10119C00804913469B0013449B000B440C33196885
:1011AC007C487A6913469B0013449B0003440C3320
:1011BC0019607B695A1E774913469B0013449B00A8
:1011CC000B44196873487A6913469B0013449B00BF
:1011DC00034419607B695A1E6E4913469B001344E5
:1011EC009B000B44103319686A487A6913469B00BC
:1011FC0013449B000344103319607B69013B7B61F2
:10120C007A69BB699A42AEDC6249BA6913469B00A3
:10121C0013449B000B4408333A691A605D49BA6960
:10122C0013469B0013449B000B440C337A681A60E2
:10123C005849BA6913469B0013449B000B44FA6847
:10124C001A605449BA6913469B0013449B000B4423
:10125C0008331B68002B0ADC4E49BA6913469B0005
:10126C0013449B000B44043301221A6009E04949E2
:10127C00BA6913469B0013449B000B4404330022B1
:10128C001A6000F0A7F901464248BA6913469B0060
:10129C0013449B000344103319603E49BA6913464A
:1012AC009B0013449B000B4410331B686EE03949C0
:1012BC00BA6913469B0013449B000B441B68002B1C
:1012CC0054D1BA68FB69D11A3248BA6913469B00EB
:1012DC0013449B000344083319602E49BA69134622
:1012EC009B0013449B000B440C337A681A60294909
:1012FC00BA6913469B0013449B000B44FA681A60AE
:10130C002449BA6913469B0013449B000B440833D1
:10131C001B68002B0ADC1F49BA6913469B00134457
:10132C009B000B44043301221A6009E01949BA6985
:10133C0013469B0013449B000B44043300221A6099
:10134C0000F048F901461348BA6913469B00134450
:10135C009B000344103319600E49BA6913469B0075
:10136C0013449B000B4410331B680FE0BB69013323
:10137C00BB61BB69032B7FF7C8AE0649BA6913463C
:10138C009B0013449B000B4410331B6818462037FA
:10139C00BD4680BD5800002080B487B000AF786097
:1013AC000023FB6000237B617B68002B00F0E18055
:1013BC0000237B61D9E072497A6913469B00134480
:1013CC009B000B4410331B687A689A4240F0CA8029
:1013DC000123FB607B69002B2BD07B69022B28DC63
:1013EC007B695A1C664913469B0013449B000B44B3
:1013FC001B68002B1DD07B695A1C614913469B004E
:10140C0013449B000B44083319685D487A691346F2
:10141C009B0013449B00034408331B687A69013218
:10142C001944574813469B0013449B00034408334C
:10143C0019607B693B615FE03B695A1C504913465C
:10144C009B0013449B000B4419684D483A691346A2
:10145C009B0013449B00034419603B695A1C484988
:10146C0013469B0013449B000B440C3319684448EF
:10147C003A6913469B0013449B0003440C331960D8
:10148C003B695A1C3E4913469B0013449B000B447A
:10149C00083319683A483A6913469B0013449B0079
:1014AC000344083319603B695A1C354913469B00A9
:1014BC0013449B000B440433196831483A691346B2
:1014CC009B0013449B000344043319603B695A1C72
:1014DC002B4913469B0013449B000B441033196893
:1014EC0027483A6913469B0013449B00034410336E
:1014FC0019603B6901333B613B69022B9CDD204940
:10150C003A6913469B0013449B000B4400221A605B
:10151C001B493A6913469B0013449B000B440C3344
:10152C0000221A6016493A6913469B0013449B002B
:10153C000B44083300221A6011493A6913469B0088
:10154C0013449B000B44043300221A600C493A6983
:10155C0013469B0013449B000B44103300221A606B
:10156C00FB6807E07B6901337B617B69032B7FF7A9
:10157C0022AFFB6818461C37BD4680BC704700BFC5
:10158C0058000020B0B586B000AF114B5B68002B43
:10159C0019DD0F4B1B6898470D4B00225A600C4B02
:1015AC003C1D1D460FCD0FC42B6823607B6918466C
:1015BC00FFF7F2FE3B69002B05D07B6839693A696D
:1015CC001846FFF793FD00BF1837BD46B0BD00BFEE
:1015DC005800002080B400AF094B1B680133084A47
:1015EC001360074B1B68002B04D1054B1B680133A0
:1015FC00034A1360024B1B681846BD4680BC7047FB
:10160C005400002080B483B000AF00237B6008E05E
:10161C00084A7B68DB00134400225A607B68013364
:10162C007B607B68092BF3DD00BF00BF0C37BD4628
:10163C0080BC70478C01002080B483B000AF786010
:10164C000A4A7B68DB0013445B68002B07D0074A0F
:10165C007B68DB00134400225A60012300E0002366
:10166C0018460C37BD4680BC704700BF8C0100206B
:10167C0080B483B000AF786039607B68092B11DCD3
:10168C003B680B4A82FB03129210DB17D21A0949F2
:10169C007B6841F83320074A7B68DB001344002247
:1016AC005A6000E000BF0C37BD4680BC704700BFDD
:1016BC00676666668C01002080B483B000AF00239F
:1016CC007B601DE0134A7B6852F83330002B14DD2D
:1016DC00104A7B6852F833305A1E0E497B6841F829
:1016EC0033200C4A7B6852F83330002B05DC094A56
:1016FC007B68DB00134401225A607B6801337B60FA
:10170C007B68092BDEDD00BF00BF0C37BD4680BCFB
:10171C00704700BF8C01002080B485B000AF154B22
:10172C009B69144A43F001039361124B9B6903F0CC
:10173C000103BB60BB680F4BDB690E4A43F080535F
:10174C00D3610C4BDB6903F080537B607B680A4BE5
:10175C005B68FB60FB6823F0E063FB60FB6843F0B5
:10176C000073FB60044AFB68536000BF1437BD462E
:10177C0080BC7047001002400000014080B584B06E
:10178C0000AF78607B681B68B3F1804F13D10C4BB2
:10179C00DB690B4A43F00103D361094BDB6903F0AE
:1017AC000103FB60FB68002200211C2000F0DFF924
:1017BC001C2000F0F8F900BF1037BD4680BD00BFFB
:1017CC000010024080B588B000AF786007F11003BC
:1017DC0000221A605A609A60DA607B681B68154AAE
:1017EC00934223D1144BDB69134A43F40033D36186
:1017FC00114BDB6903F40033FB60FB680E4B9B69F8
:10180C000D4A43F0040393610B4B9B6903F00403F3
:10181C00BB60BB680C233B6102237B610223FB6131
:10182C0007F110031946054800F0D8F900BF20371E
:10183C00BD4680BD0044004000100240000801403D
:10184C0080B400AFFEE780B400AFFEE780B400AF19
:10185C00FEE780B400AFFEE780B400AFFEE780B4D3
:10186C0000AF00BFBD4680BC704780B400AF00BF66
:10187C00BD4680BC704780B400AF00BFBD4680BC85
:10188C00704780B500AF00F07FF800BF80BD00004E
:10189C0080B500AF024801F01DF800BF80BD00BF4D
:1018AC00FC00002080B400AF00BFBD4680BC704778
:1018BC00FFF7F8FF0B480C490C4A002302E0D45800
:1018CC00C4500433C4188C42F9D3094A094C002380
:1018DC0001E013600432A242FBD301F029FCFEF7B5
:1018EC00F3FE704700000020240000201C3200088A
:1018FC0024000020E0010020FEE7000080B500AFCE
:10190C00084B1B68074A43F010031360032000F0D8
:10191C0023F9002000F008F8FFF7FEFE002318461C
:10192C0080BD00BF0020024080B582B000AF78605F
:10193C00124B1A68124B1B7819464FF47A73B3FB8F
:10194C00F1F3B2FBF3F3184600F03BF90346002B1E
:10195C0001D001230EE07B680F2B0AD80022796896
:10196C004FF0FF3000F003F9064A7B681360002348
:10197C0000E0012318460837BD4680BD1800002042
:10198C00200000201C00002080B400AF054B1B7809
:10199C001A46054B1B681344034A136000BFBD462F
:1019AC0080BC704720000020DC01002080B400AF18
:1019BC00024B1B681846BD4680BC7047DC010020FA
:1019CC0080B485B000AF78607B6803F00703FB60E0
:1019DC000C4BDB68BB60BA684FF6FF031340BB606F
:1019EC00FB681A02BB68134343F0BF6343F4003334
:1019FC00BB60044ABB68D36000BF1437BD4680BCD3
:101A0C00704700BF00ED00E080B400AF044BDB6812
:101A1C001B0A03F007031846BD4680BC704700BF85
:101A2C0000ED00E080B483B000AF0346FB7197F982
:101A3C000730002B0BDBFB7903F01F02064997F9EB
:101A4C0007305B09012000FA02F241F8232000BFA5
:101A5C000C37BD4680BC704700E100E080B483B019
:101A6C0000AF03463960FB7197F90730002B0ADB96
:101A7C003B68DAB20C4997F907301201D2B20B4429
:101A8C0083F800230AE03B68DAB20849FB7903F0DB
:101A9C000F03043B1201D2B20B441A7600BF0C3771
:101AAC00BD4680BC704700BF00E100E000ED00E0E7
:101ABC0080B489B000AFF860B9607A60FB6803F05D
:101ACC000703FB61FB69C3F10703042B28BF042345
:101ADC00BB61FB690433062B02D9FB69033B00E0B5
:101AEC0000237B614FF0FF32BB6902FA03F3DA4348
:101AFC00BB681A407B699A404FF0FF317B6901FA51
:101B0C0003F3D9437B680B40134318462437BD4677
:101B1C0080BC704780B582B000AF78607B68013BB9
:101B2C00B3F1807F01D301230FE00A4A7B68013BAC
:101B3C0053600F214FF0FF30FFF790FF054B002251
:101B4C009A60044B07221A60002318460837BD46DA
:101B5C0080BD00BF10E000E080B582B000AF7860BF
:101B6C007868FFF72DFF00BF0837BD4680BD80B5F4
:101B7C0086B000AF0346B9607A60FB7300237B61CB
:101B8C00FFF742FF78617A68B9687869FFF790FFD0
:101B9C00024697F90F3011461846FFF75FFF00BF5A
:101BAC001837BD4680BD80B582B000AF0346FB71CF
:101BBC0097F907301846FFF735FF00BF0837BD46C9
:101BCC0080BD80B582B000AF78607868FFF7A2FF67
:101BDC00034618460837BD4680BD000080B48BB064
:101BEC0000AF7860396000237B6200233B6269E1BF
:101BFC0001227B6A02FA03F3FB613B681B68FA69FA
:101C0C001340BB61BA69FB699A4240F058813B684A
:101C1C005B689A4A93425ED0984A934275D8984A28
:101C2C00934258D0964A93426FD8964A934252D0D8
:101C3C00944A934269D8944A93424CD0924A934224
:101C4C0063D8924A934246D0904A93425DD8122B65
:101C5C002AD8122B59D801A252F823F0E31C000801
:101C6C00BD1C0008CF1C0008111D0008171D000822
:101C7C00171D0008171D0008171D0008171D000868
:101C8C00171D0008171D0008171D0008171D000858
:101C9C00171D0008171D0008171D0008171D000848
:101CAC00C51C0008D91C0008794A934213D02CE0BB
:101CBC003B68DB683B6229E03B68DB6804333B62D2
:101CCC0024E03B68DB6808333B621FE03B68DB6861
:101CDC000C333B621AE03B689B68002B02D1042357
:101CEC003B6213E03B689B68012B05D108233B62E8
:101CFC007B68FA691A6109E008233B627B68FA6920
:101D0C005A6103E000233B6200E000BFBB69FF2B7C
:101D1C0001D87B6801E07B6804337B61BB69FF2BD6
:101D2C0002D87B6A9B0002E07B6A083B9B003B610C
:101D3C007B691A680F213B6901FA03F3DB431A40F4
:101D4C00396A3B6901FA03F31A437B691A603B68F1
:101D5C005B6803F08053002B00F0B1804D4B9B6906
:101D6C004C4A43F0010393614A4B9B6903F0010316
:101D7C00BB60BB68484A7B6A9B08023352F823302D
:101D8C00FB607B6A03F003039B000F2202FA03F350
:101D9C00DB43FA681340FB607B68404A934213D0E4
:101DAC007B683F4A93420DD07B683E4A934207D0F2
:101DBC007B683D4A934201D1032306E0042304E0EF
:101DCC00022302E0012300E000237A6A02F00302FE
:101DDC0092009340FA681343FB602F497B6A9B087F
:101DEC000233FA6841F823203B685B6803F48013E4
:101DFC00002B06D02D4B9A682C49BB6913438B6082
:101E0C0006E02A4B9A68BB69DB43284913408B6078
:101E1C003B685B6803F40013002B06D0234BDA6895
:101E2C002249BB691343CB6006E0204BDA68BB69DF
:101E3C00DB431E491340CB603B685B6803F4003303
:101E4C00002B06D0194B5A681849BB6913434B60D9
:101E5C0006E0164B5A68BB69DB43144913404B60D0
:101E6C003B685B6803F48033002B21D00F4B1A685E
:101E7C000E49BB6913430B6021E000BF0000321018
:101E8C000000311000002210000021100000121080
:101E9C000000111000100240000001400008014039
:101EAC00000C0140001001400014014000040140EE
:101EBC000B4B1A68BB69DB43094913400B607B6A07
:101ECC0001337B623B681A687B6A22FA03F3002BAE
:101EDC007FF48EAE00BF00BF2C37BD4680BC704770
:101EEC000004014080B485B000AF78600B467B8065
:101EFC007B689A687B881340002B02D00123FB730C
:101F0C0001E00023FB73FB7B18461437BD4680BCF5
:101F1C00704780B483B000AF78600B467B8013466B
:101F2C007B707B78002B03D07A887B681A6103E086
:101F3C007B881A047B681A6100BF0C37BD4680BCD5
:101F4C00704780B485B000AF78600B467B807B68AF
:101F5C00DB68FB607A88FB6813401A04FB68D94382
:101F6C007B880B401A437B681A6100BF1437BD464F
:101F7C0080BC704780B586B000AF78607B68002B62
:101F8C0001D101236CE27B681B6803F00103002B79
:101F9C0000F08780924B5B6803F00C03042B0CD091
:101FAC008F4B5B6803F00C03082B12D18C4B5B68D6
:101FBC0003F48033B3F5803F0BD1894B1B6803F4DA
:101FCC000033002B6CD07B685B68002B68D101233D
:101FDC0046E27B685B68B3F5803F06D1804B1B689B
:101FEC007F4A43F4803313602EE07B685B68002BE0
:101FFC000CD17B4B1B687A4A23F480331360784BEB
:10200C001B68774A23F4802313601DE07B685B68B0
:10201C00B3F5A02F0CD1724B1B68714A43F480238B
:10202C0013606F4B1B686E4A43F4803313600BE0F4
:10203C006B4B1B686A4A23F480331360684B1B6834
:10204C00674A23F4802313607B685B68002B13D0F2
:10205C00FFF7ACFC386108E0FFF7A8FC02463B69CF
:10206C00D31A642B01D90323FAE15D4B1B6803F4EB
:10207C000033002BF0D014E0FFF798FC386108E037
:10208C00FFF794FC02463B69D31A642B01D9032356
:10209C00E6E1534B1B6803F40033002BF0D100E056
:1020AC0000BF7B681B6803F00203002B63D04C4B12
:1020BC005B6803F00C03002B0BD0494B5B6803F0FF
:1020CC000C03082B1CD1464B5B6803F48033002BAC
:1020DC0016D1434B1B6803F00203002B05D07B6821
:1020EC001B69012B01D00123BAE13D4B1B6823F086
:1020FC00F8027B685B69DB00394913430B603AE0FB
:10210C007B681B69002B20D0364B01221A60FFF72D
:10211C004DFC386108E0FFF749FC02463B69D31AD5
:10212C00022B01D903239BE12D4B1B6803F0020307
:10213C00002BF0D02A4B1B6823F0F8027B685B69FC
:10214C00DB00274913430B6015E0264B00221A6075
:10215C00FFF72CFC386108E0FFF728FC02463B69CE
:10216C00D31A022B01D903237AE11D4B1B6803F010
:10217C000203002BF0D17B681B6803F00803002BD3
:10218C003AD07B689B69002B19D0174B01221A603F
:10219C00FFF70CFC386108E0FFF708FC02463B69CE
:1021AC00D31A022B01D903235AE10D4B5B6A03F0BE
:1021BC000203002BF0D0012000F0CCFA1CE00A4BFB
:1021CC0000221A60FFF7F2FB38610FE0FFF7EEFB1D
:1021DC0002463B69D31A022B08D9032340E100BF06
:1021EC000010024000004242800442429E4B5B6A57
:1021FC0003F00203002BE9D17B681B6803F0040396
:10220C00002B00F0A6800023FB75974BDB6903F0D5
:10221C008053002B0DD1944BDB69934A43F08053D0
:10222C00D361914BDB6903F08053BB60BB68012326
:10223C00FB758E4B1B6803F48073002B18D18B4BF2
:10224C001B688A4A43F480731360FFF7AFFB386155
:10225C0008E0FFF7ABFB02463B69D31A642B01D9AC
:10226C000323FDE0814B1B6803F48073002BF0D03B
:10227C007B68DB68012B06D17B4B1B6A7A4A43F0E7
:10228C00010313622DE07B68DB68002B0CD1764BCD
:10229C001B6A754A23F001031362734B1B6A724A63
:1022AC0023F0040313621CE07B68DB68052B0CD164
:1022BC006D4B1B6A6C4A43F0040313626A4B1B6A36
:1022CC00694A43F0010313620BE0674B1B6A664AD1
:1022DC0023F001031362644B1B6A634A23F004036B
:1022EC0013627B68DB68002B15D0FFF75FFB38614E
:1022FC000AE0FFF75BFB02463B69D31A41F28832D6
:10230C00934201D90323ABE0574B1B6A03F0020342
:10231C00002BEED014E0FFF749FB38610AE0FFF721
:10232C0045FB02463B69D31A41F28832934201D9EC
:10233C00032395E04C4B1B6A03F00203002BEED1F8
:10234C00FB7D012B05D1484BDB69474A23F08053B9
:10235C00D3617B68DB69002B00F08180424B5B68AA
:10236C0003F00C03082B61D07B68DB69022B46D190
:10237C003F4B00221A60FFF719FB386108E0FFF7AA
:10238C0015FB02463B69D31A022B01D9032367E0E4
:10239C00354B1B6803F00073002BF0D17B681B6A74
:1023AC00B3F5803F08D1304B5B6823F400327B6877
:1023BC009B682D4913434B602B4B5B6823F47412C1
:1023CC007B68196A7B685B6A0B43274913434B6034
:1023DC00274B01221A60FFF7E9FA386108E0FFF792
:1023EC00E5FA02463B69D31A022B01D9032337E0E5
:1023FC001D4B1B6803F00073002BF0D02FE01C4B1F
:10240C0000221A60FFF7D2FA386108E0FFF7CEFA23
:10241C0002463B69D31A022B01D9032320E0124B4D
:10242C001B6803F00073002BF0D118E07B68DB69AC
:10243C00012B01D1012313E00B4B5B68FB60FB68A4
:10244C0003F480327B681B6A9A4206D1FB6803F462
:10245C0070127B685B6A9A4201D0012300E0002372
:10246C0018461837BD4680BD001002400070004071
:10247C006000424280B584B000AF786039607B6800
:10248C00002B01D10123D0E06A4B1B6803F007033A
:10249C003A689A4210D9674B1B6823F007026549CA
:1024AC003B6813430B60634B1B6803F007033A68EC
:1024BC009A4201D00123B8E07B681B6803F0020349
:1024CC00002B20D07B681B6803F00403002B05D085
:1024DC00594B5B68584A43F4E06353607B681B6854
:1024EC0003F00803002B05D0534B5B68524A43F4AE
:1024FC0060535360504B5B6823F0F0027B689B6821
:10250C004D4913434B607B681B6803F00103002BA0
:10251C0040D07B685B68012B07D1474B1B6803F4E9
:10252C000033002B15D101237FE07B685B68022B05
:10253C0007D1414B1B6803F00073002B09D1012319
:10254C0073E03D4B1B6803F00203002B01D1012308
:10255C006BE0394B5B6823F003027B685B683649A0
:10256C0013434B60FFF722FAF8600AE0FFF71EFAFC
:10257C000246FB68D31A41F28832934201D90323F5
:10258C0053E02D4B5B6803F00C027B685B689B008F
:10259C009A42EBD1274B1B6803F007033A689A4227
:1025AC0010D2244B1B6823F0070222493B681343CB
:1025BC000B60204B1B6803F007033A689A4201D06A
:1025CC00012332E07B681B6803F00403002B08D066
:1025DC00194B5B6823F4E0627B68DB681649134394
:1025EC004B607B681B6803F00803002B09D0124B6F
:1025FC005B6823F460527B681B69DB000E49134354
:10260C004B6000F021F802460B4B5B681B0903F092
:10261C000F030A49CB5C22FA03F3094A1360094BF6
:10262C001B681846FFF780F9002318461037BD4683
:10263C0080BD00BF0020024000100240E8310008BD
:10264C00180000201C00002080B487B000AF0023CD
:10265C00FB600023BB6000237B6100237B600023B5
:10266C003B611E4B5B68FB60FB6803F00C03042BA7
:10267C0002D0082B03D027E0194B3B6127E0FB6805
:10268C009B0C03F00F03174AD35C7B60FB6803F4CD
:10269C008033002B10D0114B5B685B0C03F00103F3
:1026AC00114AD35CBB607B680D4A02FB03F2BB682A
:1026BC00B2FBF3F37B6104E07B680C4A02FB03F38F
:1026CC007B617B693B6102E0054B3B6100BF3B6971
:1026DC0018461C37BD4680BC704700BF0010024036
:1026EC0000127A00003200081032000800093D0088
:1026FC0080B400AF024B1B681846BD4680BC7047C7
:10270C001800002080B500AFFFF7F2FF0246054B22
:10271C005B681B0A03F007030349CB5C22FA03F343
:10272C00184680BD00100240F831000880B500AF9B
:10273C00FFF7DEFF0246054B5B68DB0A03F007037D
:10274C000349CB5C22FA03F3184680BD001002400B
:10275C00F831000880B485B000AF78600A4B1B6874
:10276C000A4AA2FB03235B0A7A6802FB03F3FB60B1
:10277C0000BFFB685A1EFA60002BF9D100BF00BFE6
:10278C001437BD4680BC704718000020D34D621032
:10279C0080B582B000AF78607B68002B01D101233B
:1027AC0041E07B6893F83D30DBB2002B06D17B68AF
:1027BC00002283F83C207868FEF7E0FF7B68022259
:1027CC0083F83D207B681A687B68043319461046F1
:1027DC0000F05CFA7B68012283F846207B680122BA
:1027EC0083F83E207B68012283F83F207B6801221E
:1027FC0083F840207B68012283F841207B6801220A
:10280C0083F842207B68012283F843207B680122F5
:10281C0083F844207B68012283F845207B680122E1
:10282C0083F83D20002318460837BD4680BD0000C4
:10283C0080B485B000AF78607B6893F83D30DBB234
:10284C00012B01D001233AE07B68022283F83D2062
:10285C007B681B68DA687B681B6842F00102DA60EF
:10286C007B681B68184A93420ED07B681B68B3F1D7
:10287C00804F09D07B681B68144A934204D07B6854
:10288C001B68134A934211D17B681B689B6803F049
:10289C000703FB60FB68062B10D07B681B681A686B
:1028AC007B681B6842F001021A6007E07B681B68BA
:1028BC001A687B681B6842F001021A6000231846F4
:1028CC001437BD4680BC7047002C0140000400400A
:1028DC000008004080B584B000AF78607B681B684E
:1028EC00DB68FB607B681B681B69BB60BB6803F023
:1028FC000203002B20D0FB6803F00203002B1BD03B
:10290C007B681B686FF002021A617B6801221A77E0
:10291C007B681B689B6903F00303002B03D078686A
:10292C0000F098F905E0786800F08BF9786800F011
:10293C009AF97B6800221A77BB6803F00403002B1A
:10294C0020D0FB6803F00403002B1BD07B681B68B2
:10295C006FF004021A617B6802221A777B681B688D
:10296C009B6903F44073002B03D0786800F072F974
:10297C0005E0786800F065F9786800F074F97B6818
:10298C0000221A77BB6803F00803002B20D0FB68E9
:10299C0003F00803002B1BD07B681B686FF0080248
:1029AC001A617B6804221A777B681B68DB6903F069
:1029BC000303002B03D0786800F04CF905E078682D
:1029CC0000F03FF9786800F04EF97B6800221A7726
:1029DC00BB6803F01003002B20D0FB6803F010033E
:1029EC00002B1BD07B681B686FF010021A617B6890
:1029FC0008221A777B681B68DB6903F44073002B91
:102A0C0003D0786800F026F905E0786800F019F931
:102A1C00786800F028F97B6800221A77BB6803F00D
:102A2C000103002B0CD0FB6803F00103002B07D033
:102A3C007B681B686FF001021A617868FDF7C8FFAC
:102A4C00BB6803F08003002B0CD0FB6803F0800301
:102A5C00002B07D07B681B686FF080021A617868C6
:102A6C0000F07FFABB6803F04003002B0CD0FB682E
:102A7C0003F04003002B07D07B681B686FF040020B
:102A8C001A61786800F0F8F8BB6803F02003002B9B
:102A9C000CD0FB6803F02003002B07D07B681B686D
:102AAC006FF020021A61786800F052FA00BF1037FC
:102ABC00BD4680BD80B584B000AF7860396000231E
:102ACC00FB737B6893F83C30012B01D10223B4E0FB
:102ADC007B68012283F83C207B68022283F83D202E
:102AEC007B681B689B68BB60BB6823F07703BB608B
:102AFC00BB6823F47F43BB607B681B68BA689A6031
:102B0C003B681B68B3F5005F3ED0B3F5005F00F285
:102B1C008780B3F5805F00F08680B3F5805F7FD847
:102B2C00702B1AD0702B7BD8602B50D0602B77D8A1
:102B3C00502B3CD0502B73D8402B58D0402B6FD8F7
:102B4C00302B64D0302B6BD8202B60D0202B67D847
:102B5C00002B5CD0102B5AD062E07B6818683B6865
:102B6C0099683B685A683B68DB6800F074F97B68CD
:102B7C001B689B68BB60BB6843F07703BB607B68DA
:102B8C001B68BA689A604FE07B6818683B68996864
:102B9C003B685A683B68DB6800F05DF97B681B6832
:102BAC009A687B681B6842F480429A603CE07B68C0
:102BBC0018683B6859683B68DB681A4600F0D4F823
:102BCC007B681B685021184600F02BF92CE07B68C1
:102BDC0018683B6859683B68DB681A4600F0F2F8E5
:102BEC007B681B686021184600F01BF91CE07B68B1
:102BFC0018683B6859683B68DB681A4600F0B4F803
:102C0C007B681B684021184600F00BF90CE07B68D0
:102C1C001A683B681B681946104600F002F903E07D
:102C2C000123FB7300E000BF7B68012283F83D2089
:102C3C007B68002283F83C20FB7B18461037BD468E
:102C4C0080BD80B483B000AF786000BF0C37BD4648
:102C5C0080BC704780B483B000AF786000BF0C3785
:102C6C00BD4680BC704780B483B000AF786000BFB5
:102C7C000C37BD4680BC704780B483B000AF786021
:102C8C0000BF0C37BD4680BC7047000080B485B0D7
:102C9C0000AF786039607B681B68FB607B682F4AEB
:102CAC0093420BD07B68B3F1804F07D07B682C4AE2
:102CBC00934203D07B682B4A934208D1FB6823F0E4
:102CCC007003FB603B685B68FA681343FB607B68CE
:102CDC00224A93420BD07B68B3F1804F07D07B68BC
:102CEC001F4A934203D07B681E4A934208D1FB686B
:102CFC0023F44073FB603B68DB68FA681343FB60AA
:102D0C00FB6823F080023B685B691343FB607B68C4
:102D1C00FA681A603B689A687B68DA623B681A68E2
:102D2C007B689A627B680D4A934203D13B681A69AF
:102D3C007B681A637B6801225A617B681B6903F00C
:102D4C000103002B05D07B681B6923F001027B6813
:102D5C001A6100BF1437BD4680BC7047002C01407F
:102D6C00000400400008004080B487B000AFF86059
:102D7C00B9607A60FB681B6A7B61FB681B6A23F095
:102D8C000102FB681A62FB689B693B613B6923F09B
:102D9C00F0033B617B681B013A6913433B617B6920
:102DAC0023F00A037B617A69BB6813437B61FB6880
:102DBC003A699A61FB687A691A6200BF1C37BD4692
:102DCC0080BC704780B487B000AFF860B9607A609F
:102DDC00FB681B6A7B61FB681B6A23F01002FB68B3
:102DEC001A62FB689B693B613B6923F470433B614E
:102DFC007B681B033A6913433B617B6923F0A00397
:102E0C007B61BB681B017A6913437B61FB683A6980
:102E1C009A61FB687A691A6200BF1C37BD4680BC98
:102E2C00704780B485B000AF786039607B689B6870
:102E3C00FB60FB6823F07003FB603A68FB6813438C
:102E4C0043F00703FB607B68FA689A6000BF143795
:102E5C00BD4680BC704780B487B000AFF860B960E5
:102E6C007A603B60FB689B687B617B6923F47F43E2
:102E7C007B613B681A027B681A43BB6813437A690F
:102E8C0013437B61FB687A699A6000BF1C37BD46AF
:102E9C0080BC704780B485B000AF786039607B68C7
:102EAC0093F83C30012B01D1022346E07B680122D0
:102EBC0083F83C207B68022283F83D207B681B68EA
:102ECC005B68FB607B681B689B68BB60FB6823F0DE
:102EDC007003FB603B681B68FA681343FB607B68FC
:102EEC001B68FA685A607B681B68164A93420ED0BE
:102EFC007B681B68B3F1804F09D07B681B68124A52
:102F0C00934204D07B681B68104A93420CD1BB6877
:102F1C0023F08003BB603B685B68BA681343BB60FB
:102F2C007B681B68BA689A607B68012283F83D2035
:102F3C007B68002283F83C20002318461437BD46DA
:102F4C0080BC7047002C0140000400400008004089
:102F5C0080B483B000AF786000BF0C37BD4680BC36
:102F6C00704780B483B000AF786000BF0C37BD46AB
:102F7C0080BC704780B582B000AF78607B68002B56
:102F8C0001D1012342E07B6893F84130DBB2002B86
:102F9C0006D17B68002283F840207868FEF712FC8B
:102FAC007B68242283F841207B681B68DA687B6885
:102FBC001B6822F40052DA60786800F02BF87B680A
:102FCC001B681A697B681B6822F490421A617B6843
:102FDC001B685A697B681B6822F02A025A617B685D
:102FEC001B68DA687B681B6842F40052DA607B6805
:102FFC0000225A647B68202283F841207B682022BF
:10300C0083F842207B6800225A6300231846083755
:10301C00BD4680BD80B584B000AF78607B681B680E
:10302C001B6923F440517B68DA687B681B680A4390
:10303C001A617B689A687B681B691A437B685B69B9
:10304C001343BB607B681B68DB6823F4B05323F02D
:10305C000C037A681268B9680B43D3607B681B68F1
:10306C005B6923F440717B689A697B681B680A432F
:10307C005A617B681B682C4A934203D1FFF756FBBD
:10308C00F86002E0FFF73EFBF860FA6813469B001D
:10309C0013449A001A447B685B689B00B2FBF3F301
:1030AC00224AA2FB03235B091901FA6813469B0011
:1030BC0013449A001A447B685B689B00B2FBF3F2E2
:1030CC001A4BA3FB02035B09642000FB03F3D31A26
:1030DC001B013233154AA2FB03235B0903F0F003F7
:1030EC001944FA6813469B0013449A001A447B68EF
:1030FC005B689B00B2FBF3F20C4BA3FB02035B0976
:10310C00642000FB03F3D31A1B013233074AA2FBE2
:10311C0003235B0903F00F027B681B680A449A6067
:10312C0000BF1037BD4680BD003801401F85EB51F4
:10313C0070B500260C4D0D4C641BA410A64209D191
:10314C0000F022F800260A4D0A4C641BA410A6427B
:10315C0005D170BD55F8043B98470136EEE755F89C
:10316C00043B98470136F2E7143200081432000889
:10317C00143200081832000803460244934200D16E
:10318C00704703F8011BF9E7F8B500BFF8BC08BCA1
:10319C009E467047F8B500BFF8BC08BC9E46704709
:1031AC0000100140002000000010014080000000D1
:1031BC00000C014040000000C0F9A4B0999282F8C4
:1031CC00809000000008000410000800400000017E
:1031DC000100020080000002020004000000000058
:1031EC0000000000010203040607080900000000AB
:1031FC000102030402030405060708090A0B0C0D5F
:08320C000E0F1010010200007A
:04321400310100087C
:043218000D0100089C
:10321C000100000007000000020000000500000093
:10322C00010000000100000000127A0010000000F4
:04323C00010000008D
:04000005080018BD1A
:00000001FF
